:020000040800F2
:100000002056002091140008B1020008B302000835
:10001000C1020008C5020008C90200080000000073
:10002000000000000000000000000000CD020008F9
:10003000CF02000800000000D1020008D30200082F
:10004000AB140008AB140008AB140008AB14000894
:10005000AB140008AB140008AB140008AB14000884
:10006000AB140008AB140008AB140008AB14000874
:10007000AB140008AB140008AB140008AB14000864
:10008000AB140008AB140008AB140008AB14000854
:10009000AB140008AB140008AB140008AB14000844
:1000A000AB140008AB140008AB140008AB14000834
:1000B000AB14000885080008AB140008AB14000856
:1000C000AB140008AB140008AB140008AB14000814
:1000D000AB14000807140008AB140008AB140008A8
:1000E000AB140008AB140008AB140008AB140008F4
:1000F000AB140008AB140008AB140008AB140008E4
:10010000AB140008AB140008AB140008AB140008D3
:10011000AB140008AB140008AB140008AB140008C3
:10012000AB140008E9040008AB140008AB14000885
:10013000AB140008AB140008AB140008AB140008A3
:10014000B9110008AB140008AB140008AB14000888
:10015000AB140008AB140008AB140008AB14000883
:10016000AB140008AB140008AB140008AB14000873
:10017000AB140008AB1400080B050008AB14000812
:10018000AB140008AB14000800F002F800F041F8CE
:100190000AA090E8000C82448344AAF10107DA45E2
:1001A00001D100F036F8AFF2090EBAE80F0013F0F3
:1001B000010F18BFFB1A43F001031847406C000001
:1001C000606C0000103A24BF78C878C1FAD8520792
:1001D00024BF30C830C144BF04680C6070470000C1
:1001E0000023002400250026103A28BF78C1FBD840
:1001F000520728BF30C148BF0B607047642904F024
:100200006183002070471FB506F07CFD1FBD10B54F
:1002100010BD04F0B4FC1146FFF7F5FF00F008F83C
:1002200004F0D2FC03B4FFF7F2FF03BC01F08CF83A
:100230004FF4A06001F04CF9A82001F003F842F25D
:10024000CF0142F20F7000F0F1FA03E04FF4FA70C0
:1002500001F05AF800F04EFB0028F7D1012000F021
:100260008DFB6FF0030000F012FC6FF0030000F054
:1002700022FC6FF0030000F04FFC012000F05DFC59
:1002800000226421084600F0B7FC04F053FA00F0A5
:1002900011FB00F0F1F9002241F28831034800F02F
:1002A000A1F900F087FA00BFFEE700006C00002013
:1002B00070474FF48061074801F044FB00BFFEE740
:1002C00000BFFEE700BFFEE700BFFEE770477047D4
:1002D00070477047001C02400CB500200190009050
:1002E0007648006840F480307449086000BF734865
:1002F000006800F4003000900198401C01900098C4
:1003000018B90198B0F5A04FF1D16C48006800F41D
:10031000003010B10120009001E000200090009812
:10032000012846D165484030006840F0805063495C
:10033000403108606248006840F44040604908600D
:100340005E48083000685D4908310860084600686A
:1003500040F4004008600846006840F4A05008607F
:100360005848091F0860081F006840F08070091F86
:10037000086000BF5148006800F000700028F9D004
:1003800040F20570504908604C480830006820F081
:1003900003004A49083108600846006840F002003E
:1003A000086000BF45480830006800F00C000828CD
:1003B000F8D10CBD10B54548006840F470004349C1
:1003C00008603E48006840F001003C490860002099
:1003D0003A4908310860394800683D4908403749C2
:1003E00008603C48091D0860081F006820F4802050
:1003F000091F0860002031490C310860FFF76CFFCD
:100400004FF0006031498039086010BD70B50020A0
:100410000022022300240221284D08352D6805F012
:100420000C0020B1042806D0082834D107E02A4D5A
:100430002A4E356033E02A4D284E35602FE01F4D9F
:100440002D1D2D68C5F380541C4D2D1D2D6805F004
:100450003F0154B1224DB5FBF1F5184E361D3668FB
:10046000C6F3881605FB06F209E01B4DB5FBF1F556
:10047000124E361D3668C6F3881605FB06F20F4D80
:100480002D1D2D68C5F301456D1C6B00B2FBF3F506
:10049000124E356003E0104D104E356000BF00BFB6
:1004A000064D08352D68C5F303150E4E705D0B4DD6
:1004B0002D68C540094E356070BD0000003802400F
:1004C0000070004008544007003C024088ED00E006
:1004D000FFFFF6FE103000240024F400000000208E
:1004E00000127A000400002010B5BF49BF4801F097
:1004F000F5FB012808D1BC49BC4801F019FCBC48F7
:100500000088401CBA49088010BD10B5012001F0D8
:1005100004F9012858D101F00CF9002042E0B54956
:10052000095C01F0F801B44A1170B24A411C515CF7
:1005300001F01C01125C41EA4211B04A1170AD4A4F
:10054000411C515CC906090EAD4A1170AA490978CF
:10055000AA4A127801EB8201A94A127801EB420102
:10056000A84A1180A84949881288914219DAA249FB
:100570000978A54A9180A1490978D180A0490978D4
:100580001181A049098851806421B0FBF1F201FB7F
:1005900012019D4A11706421B0FBF1F1C1F34701D2
:1005A0005170801C44F61E618842B8D304F0D9F81B
:1005B00000209549488095480088401C9349088050
:1005C0000020934908800CE0102001F0A6F80128D3
:1005D00007D1102001F0ADF88D480088401C8C49EF
:1005E000088010BD70B590B004460D461646012136
:1005F000880501F09BFD7D4801F0EAF900BF7B48CA
:1006000001F00FFB0028FAD14FF0007001908148F3
:100610000290039400200490059506904FF48060AA
:10062000079080000890099600110A9040020B90F4
:1006300004200C9003200D9000200E900F9001A933
:100640006A4801F067FA4FF4C06000F041FF3920BA
:100650008DF8000000208DF8010001208DF80200C7
:100660008DF80300684600F038FF012210215F4832
:1006700001F017FB10B070BD00B587B0012108462E
:1006800001F065FD012140F2951001F04FFD0220BF
:100690008DF8080000208DF80A0003208DF809006D
:1006A00001208DF80B004020019001A95A4801F06B
:1006B000CBF88020019001A9584801F0C5F87320BB
:1006C000019001A9564801F0BFF84FF44070019025
:1006D00001A9544801F0B8F83020019001A952480E
:1006E00001F0B2F80D2208214E4801F038F90D2230
:1006F0000621494801F033F90D2205214A4801F04D
:100700002EF90D220921474801F029F90D22072170
:10071000424801F024F90D220021414801F01FF95F
:100720000D2201213E4801F01AF90D2204213C4816
:1007300001F015F90D2204213B4801F010F90D22BA
:100740000521374801F00BF90D220621344801F04C
:1007500006F900F02DFF0020ADF80C00ADF81600F2
:10076000ADF81800ADF80E008020ADF812000020A2
:10077000ADF814002020ADF8100003A800F024FF0D
:100780000121112000F0A0FF012000F07CFF4FF4B8
:10079000C06000F09DFE4E208DF8000001208DF815
:1007A00001008DF802008DF80300684600F095FE08
:1007B00007B000BD10B501210C4801F0E5F901209A
:1007C00000F070FF10BD10B5002000F06BFF00BFFF
:1007D00010482838006800F001000028F8D10021F6
:1007E000024801F0D1F910BD0088001028640240D1
:1007F000180000206C0000201A0000201B000020C0
:100800001C0000201E0000208C4E00201400002040
:100810001600002028000550000002400008024099
:1008200000100240001C0240002002407FB5044638
:100830000D460121022001F0C2FCADF80450002059
:10084000ADF806000294ADF80C0001A9164802F0BC
:1008500098F801221146144802F034FD0121124893
:1008600002F018F91D208DF8000001208DF801001C
:1008700003208DF8020001208DF80300684600F087
:100880002CFE7FBD10B50121074802F032FD012882
:1008900004D100200549087005490880012102485B
:1008A00002F038FD10BD00000004004014000020DC
:1008B000180000201CB50121902001F037FC4FF4F6
:1008C0008060009001208DF8040000208DF8060063
:1008D00003208DF8050001208DF8070069460448C3
:1008E00000F0B2FF4FF48061014801F029F81CBD0F
:1008F000001C024070B5002500F045FA0A2000F007
:1009000003FD1C2000F0BCFB04464FF6FF7000EA1C
:1009100004241D2000F0B4FB044347F6A270844277
:1009200005D02146FEA003F08DFF012070BD0A20F6
:1009300000F0A6FB04464FF6FF7000EA04240B20EB
:1009400000F09EFB044347F22170844205D021460B
:10095000F6A003F077FF0220E8E700250AE0F64A58
:1009600002EB45025178F44A12F8150000F06FFBD3
:10097000681C85B2412DF2D30020D7E710B504469C
:10098000062C14D2DFE804F003142D465F78FF2113
:10099000132000F05CFB65210E2000F058FB0021C5
:1009A0002D2000F054FB00212E2000F050FB6CE0C5
:1009B000FD21132000F04BFB5A21012000F047FBE2
:1009C0005C21022000F043FB65210E2000F03FFB7C
:1009D00000212D2000F03BFB00212E2000F037FBF2
:1009E00053E0FD21132000F032FB5821012000F0DC
:1009F0002EFB6021022000F02AFB65210E2000F072
:100A000026FB00212D2000F022FB00212E2000F0EB
:100A10001EFB3AE0FD21132000F019FB8421012088
:100A200000F015FB4C21022000F011FB65210E2087
:100A300000F00DFB00212D2000F009FB00212E20ED
:100A400000F005FB21E0FD21132000F000FB9621C2
:100A5000012000F0FCFA4021022000F0F8FA6521A4
:100A60000E2000F0F4FA00212D2000F0F0FA002111
:100A70002E2000F0ECFA08E0FF21132000F0E7FA46
:100A8000E5210E2000F0E3FA00BF00BF10BD10B555
:100A9000044614F1040F0DDB042C0BDC201D0007B1
:100AA000010EA72000F0D3FA201D0007010EA82098
:100AB00000F0CDFA10BD70B50646301D092821D2D0
:100AC000DFE800F01D1A1714110E0B08050048246A
:100AD000062517E03824062514E02824062511E011
:100AE000182406250EE0082406250BE008240E2510
:100AF00008E018240E2505E028240E2502E03824FD
:100B00000E2500BF00BF21469B2000F0A0FA294619
:100B1000AB2000F09CFA70BD10B5044614F1040F30
:100B20000ADB042C08DCC4F104003022A2EB8000B4
:100B3000C1B29C2000F08BFA10BD10B50446072C02
:100B400058D2DFE804F004111E2B3845520006216C
:100B5000A62000F07CFA8021602000F078FA802145
:100B6000612000F074FA45E02621A62000F06FFA1B
:100B70008021602000F06BFA8021612000F067FA8C
:100B800038E01E21A62000F062FAA021602000F0CB
:100B90005EFA4021612000F05AFA2BE01E21A620C7
:100BA00000F055FA4021602000F051FAA0216120A8
:100BB00000F04DFA1EE01E21A62000F048FA802128
:100BC000602000F044FAC021612000F040FA11E0FA
:100BD0001E21A62000F03BFA6021084600F037FAFB
:100BE0006021612000F033FA04E04621A62000F0E5
:100BF0002EFA00BF00BF10BD2DE9F04704460D4698
:100C00009146B9F1000F2CD0C4F5207000EBD071E3
:100C1000C1F34F07C5F5F07000EBD071C1F34F0879
:100C20000621122000F013FA2321172000F00FFAFA
:100C3000A021182000F00BFA0721192000F007FA74
:100C4000F0211A2000F003FA0021322000F0FFF911
:100C5000A021292000F0FBF9F0212C2000F0F7F969
:100C60002BE0C4F5A07000EBD071C1F34F07C5F1C4
:100C7000F00000EBD071C1F34F084621122000F0C4
:100C8000E6F93F21172000F0E2F95021182000F08A
:100C9000DEF90321192000F0DAF978211A2000F09A
:100CA000D6F90021322000F0D2F95021292000F09D
:100CB000CEF978212C2000F0CAF9172000F0E0F9D5
:100CC000064606EBA70000F0FF0A5146172000F089
:100CD000BEF9C4F38701182000F0B9F9192000F01B
:100CE000CFF9064606EB680000F0FF0A51461920CE
:100CF00000F0ADF9C5F347011A2000F0A8F9322041
:100D000000F0BEF906464FEAC870400E07F0030136
:100D100040EA011005F0010140EA81000EE0000008
:100D20004D49443A25640D0A000000004849443A00
:100D300025640D0A000000000E6D000804F0030198
:100D4000084340EA060A5146322000F080F9C4F315
:100D50008701292000F07BF9C5F347012C2000F022
:100D600076F92A2000F08CF904F00300304305F0F6
:100D7000010140EA810A51462A2000F068F9BDE8E5
:100D8000F0870000704770B58AB001251E2401214C
:100D9000022001F025FA0121042001F0C7F9032205
:100DA0000621C54800F0DBFD4020089002208DF8A8
:100DB000240003208DF8250000208DF82600012056
:100DC0008DF8270008A9BC4800F03EFD681E80B2DF
:100DD000ADF814000020ADF81600601E069000204B
:100DE000ADF81C0005A9B54801F0CBFD6020ADF8B9
:100DF00000000120ADF802000220ADF80C006946A9
:100E0000AE4801F053FE0821AC4801F0DCFF01219F
:100E1000AA4801F021FE0121A84801F03BFE264628
:100E200004EBD6704110A54801F099FF0121A348B9
:100E300002F021FA0121022001F078F94FF440700C
:100E4000089001208DF824008DF8260003208DF8ED
:100E5000250001208DF8270008A9994800F0F4FC2E
:100E60004FF44071964800F06BFD9548006820F4FF
:100E70004020934908600846006840F480200860DC
:100E80000AB070BD10B50A2000F0F6F901208D49B6
:100E900008608D49C1F8A0020A2000F0EDF9002099
:100EA000884908600A2000F0E7F900208649C1F867
:100EB000A0020A2000F0E0F910BD10B50A2000F0F1
:100EC000DBF900207F4908600A2000F0D5F90120F5
:100ED0007D49C1F8A0020A2000F0CEF9012079492D
:100EE00008600A2000F0C8F910BD10B50A2000F013
:100EF000C3F90120734908607349C1F8A0020A20B0
:100F000000F0BAF900206F49091F08600A2000F0BC
:100F1000B3F900206C49C1F8A4020A2000F0ACF932
:100F200010BD70B504460A2000F0A6F900261EE0A8
:100F300004F0800018B101206249086002E000203E
:100F4000604908606006040E0A2000F095F901204F
:100F50005C49091F08600A2000F08EF900205A49F8
:100F6000C1F8A0020A2000F087F9701CC6B2082E52
:100F7000DEDB5348006820F44020514908600846F1
:100F8000006808600A2000F077F901204D49091F28
:100F900008600A2000F070F94B48D0F8240208B12C
:100FA000012500E000250A2000F066F900204549EF
:100FB000091F08600A2000F05FF94148006820F42A
:100FC00040203F4908600846006840F480200860DF
:100FD0000A2000F051F9284670BD70B500240A209F
:100FE00000F04AF93648006820F44020344908608F
:100FF000084600680860082517E001203149091FEC
:1010000008606006040E3048D0F8240208B1601C65
:10101000C4B20A2000F030F900202A49091F0860F4
:101020000A2000F029F9681EC5B2002DE5DC24482D
:10103000006820F44020224908600846006840F417
:10104000802008600A2000F017F9204670BD70B5B6
:1010500005460C460026FFF715FF4220FFF761FF0B
:1010600000B101262846FFF75CFF00B101262046AB
:10107000FFF757FF00B10126FFF71FFF304670BD95
:1010800070B504460025FFF7FDFE4220FFF749FF3B
:101090002046FFF746FFFFF710FFFFF7F3FE432060
:1010A000FFF73FFFFFF799FF0546FFF71EFFFFF72A
:1010B00004FF284670BD0000000802400004014003
:1010C00000040240A482404200804042F0B58BB050
:1010D00000270524062503260121022001F026F819
:1010E0000121880601F06BF86020099002208DF83C
:1010F000280000208DF82A0003208DF82900012007
:101100008DF82B0009A94C4800F09EFB092205210F
:10111000494800F024FC09220621474800F01FFC42
:1011200000208DF81E008DF81F008DF82000012092
:101130008DF8210000208DF822008DF823008DF815
:101140001A008DF81B708DF81C508DF81D40ADF8FD
:10115000186006A9394802F012FC00208DF8120030
:101160008DF8130001208DF814000020ADF8080060
:10117000ADF80A00ADF80C00ADF80E00ADF81000A7
:1011800001208DF8150002A802F083FC0122022143
:101190002A4802F07DFF40208DF8040001208DF8E0
:1011A000050000208DF8060001208DF8070001A839
:1011B00000F093F90BB0F0BD00B585B06A46002190
:1011C0001E4802F04AFE05B000BD2DE9F04186B090
:1011D00007460D4690460024CDF80480002002907A
:1011E0008DF80C008DF80D008DF80E5000BF05E055
:1011F000395D0DF10F000155601C84B2AC42F7DB84
:1012000001A90F4802F034FD0646002401E0601CED
:1012100084B231460A4802F0C3FD18B940F6FF70A7
:101220008442F4DB40F6FF70844203DB012006B009
:10123000BDE8F0810020FAE70004024000680040A9
:101240000064004010B504466FF0040000F092F90D
:10125000E11704EB5171C1F3C701394A117010460F
:10126000007800EB4001C1EBC0104FF6FF7101EABE
:10127000C0003449088010BD0146314A12784A4303
:101280004FF0E0235A6100229A611A46126942F037
:1012900001021A6100BF4FF0E022106900F0010264
:1012A0001AB100F48032002AF5D04FF0E022126922
:1012B00022F001024FF0E0231A6100229A61704788
:1012C0000146204A12884A434FF0E0235A61002227
:1012D0009A611A46126942F001021A6100BF4FF08A
:1012E000E022106900F001021AB100F48032002AF5
:1012F000F5D04FF0E022126922F001024FF0E02316
:101300001A6100229A61704770B504464FF4077065
:1013100094FBF0F0C6B24FF4077094FBF0F100FBC1
:10132000114085B205E04FF40770FFF7C9FF701E4A
:10133000C6B2002EF7D115B12846FFF7C1FF70BD28
:10134000200000202200002000BF704700BF4C4A50
:10135000128802F04002002AF9D0C2B2484B9A80AB
:10136000704710B588B004460121084600F0DEFE43
:101370000121102000F034FF07220921414800F02C
:10138000EEFA07220A213F4800F0E9FA4FF4C06064
:10139000069002208DF81C008DF81D0000208DF8AD
:1013A0001E0001208DF81F0006A9364800F04CFAF7
:1013B00002940020ADF80C00ADF80E00ADF810005E
:1013C000ADF814000C20ADF8120002A92C4801F071
:1013D00068F801212A4801F0ECF8012240F2255179
:1013E000274801F09CF925208DF8040003208DF892
:1013F00005008DF8060001208DF8070001A800F017
:101400006CF808B010BD10B540F225511C4801F031
:10141000C1F910B31A4801F0FBF8C4B21A480088A9
:1014200000F40040C8B91848008800F4804060B15A
:101430000A2C03D000201449088020E012480088BC
:1014400040F400401049088019E00D2C06D10E48E8
:10145000008840F480400C49088010E00A48008869
:10146000C0F30D0009490C5407480088401C064988
:10147000088008460088C72801DD0020088010BDCC
:10148000001001400000024028000020964E00207D
:101490000948804709480047FEE7FEE7FEE7FEE708
:1014A000FEE7FEE7FEE7FEE7FEE7FEE70448054944
:1014B000054A064B70470000B50300088901000883
:1014C00020500020205600202052002020520020D2
:1014D00032490143324A1160704770B50021002340
:1014E0000F22C4781CB32E4C246804F4E064C4F5C5
:1014F000E064C4F30721C1F10404E3B20A41447873
:101500009C40E1B28478144021430C07210E254C05
:1015100005786155047804F01F050124AC40057876
:101520006D11AD0005F1E025C5F8004109E0047832
:1015300004F01F050124AC401B4D0678761145F8D8
:10154000264070BD194A0A400243154B1B1F1A6002
:10155000704739B1124A121D12680243104B1B1D0D
:101560001A6006E00E4A121D126882430C4B1B1DC6
:101570001A607047042808D14FF0E021096941F052
:1015800004014FF0E022116107E04FF0E02109690A
:1015900021F004014FF0E022116170470000FA05CC
:1015A0000CED00E000E400E080E100E080FFFF1FC0
:1015B000002061490860C8601F20486100208861E0
:1015C000C86108624862704700215B4A126844F2B1
:1015D00001039A43584B1A601A46116840F6F2729A
:1015E0009143028843881A4383881A43C3881A4365
:1015F00003891A4343891A4383891A4311434E4A84
:10160000116070470021018041808180C18001818B
:101610004181818170474188028841EA0241464AFE
:101620001162C188828841EA0241434A516270478F
:1016300030B14149096841F004013F4A116005E0B9
:101640003D49096821F004013B4A11607047017867
:10165000427841EA0221827841EA0241C27841EAB5
:101660000261354A9161704730B13349096841F0F0
:101670000801314A116005E02F49096821F008018D
:101680002D4A1160704730B12B49096841F48041FF
:10169000294A116005E02849096821F48041264A59
:1016A0001160704730B12449096841F00101224AB4
:1016B000116005E02049096821F001011E4A11600E
:1016C00070471D48806A704729B11B4AD26802439F
:1016D000194BDA6006E0184AD268C3439BB21A403D
:1016E000154BDA60704710B50146002000230A133D
:1016F00012B9114CA36806E0022A02D10E4C6368AD
:1017000001E00D4C236903EA01040CB1012000E063
:10171000002010BD084948617047014600200022A2
:10172000054B1B6903EA01020AB1012000E0002019
:1017300070470149486170470000055010B50446E4
:101740009848844208D10121084600F05AFD002142
:10175000012000F056FD76E09348844208D1012133
:10176000022000F04EFD0021022000F04AFD6AE058
:101770008E48844208D10121042000F042FD00215E
:10178000042000F03EFD5EE08948844208D101213A
:10179000082000F036FD0021082000F032FD52E064
:1017A0008448844208D10121102000F02AFD002144
:1017B000102000F026FD46E07F48844208D1012138
:1017C000202000F01EFD0021202000F01AFD3AE04C
:1017D0007A48844208D10121402000F012FD002106
:1017E000402000F00EFD2EE07548844208D1012112
:1017F000802000F006FD0021802000F002FD22E0A4
:101800007048844208D10121801500F0FAFC0021C3
:10181000A01500F0F6FC16E06B48844208D10121C7
:10182000401500F0EEFC0021601500F0EAFC0AE033
:101830006648844207D10121001500F0E2FC002136
:10184000201500F0DEFC10BDF0B50A460021002393
:10185000002400BF3DE0012505FA01F3156805EA03
:1018600003049C4234D105684F000326BE40B543B3
:10187000056015794E00B540066835430560157959
:10188000012D02D01579022D16D185684F0003264F
:10189000BE40B543856055794E00B54086683543F6
:1018A0008560456801268E40B54345604568967958
:1018B0008E40B6B235434560C5684F000326BE4032
:1018C000B543C560D5794E00B540C6683543C5609F
:1018D000491C1029BFD3F0BD4FF6FF7101600021F4
:1018E000017141718171C171704708B54FF4803247
:1018F0000092009A0A430092009AC261C161009A64
:10190000C261C2690092C269009208BD024600200D
:1019100013690B400BB1012000E000207047014625
:10192000086980B270470246002053690B400BB132
:10193000012000E0002070470146486980B27047EE
:1019400001837047418370470AB1018300E04183FE
:1019500070474161704742694A4042617047F0B543
:10196000002300244D07ED0E02FA05F3CE1000F11E
:10197000200555F826504E07F70E0F26BE40B543FA
:10198000CF1000F1200646F82750CE1000F12005B8
:1019900055F8265045EA0304CE1000F1200545F81D
:1019A0002640F0BD00000240000402400008024052
:1019B000000C0240001002400014024000180240D7
:1019C000001C024000200240002402400028024087
:1019D000016821F001010160002101604160816026
:1019E000C160016121214161DB49884204D13D216F
:1019F000D94A103A91608CE0D7491831884205D114
:101A00004FF47461D44A103A916082E0D249303187
:101A1000884205D14FF47411CF4A103A916078E0B2
:101A2000CD494831884205D14FF07461CA4A103A15
:101A300091606EE0C8496031884204D1C749C64A06
:101A4000103AD16065E0C4497831884204D1C44974
:101A5000C14A103AD1605CE0BF499031884204D15C
:101A6000C049BD4A103AD16053E0BB49A831884211
:101A700005D14FF03D51B84A103AD16049E0BA491A
:101A8000884204D13D21B84A083A116041E0B64984
:101A90001831884205D14FF47461B34A083A116095
:101AA00037E0B1493031884205D14FF47411AE4A64
:101AB000083A11602DE0AC494831884205D14FF019
:101AC0007461A94A083A116023E0A749603188424D
:101AD00004D1A249A44A121F11601AE0A249783128
:101AE000884204D19E49A04A121F116011E09E490C
:101AF0009031884204D19B499B4A121F116008E033
:101B00009949A831884204D14FF03D51964A121F9D
:101B10001160704710B500220268944B1A40CC68DF
:101B20000B6823434C6923438C692343CC692343CB
:101B30000C6A23434C6A23438C6A23434C6B234334
:101B40008C6B23431A430260426922F00702D1E9F9
:101B50000B3423431A4342610B6943604B68836033
:101B60008B68C36010BD0021016041608160C1606D
:101B7000016141618161C161016241628162C16251
:101B8000016341638163704721B1026842F0010241
:101B9000026003E0026822F001020260704721B196
:101BA000026842F40042026003E0026822F400424C
:101BB0000260704721B1026842F02002026003E037
:101BC000026822F0200202607047416070470146BF
:101BD000486880B2704722B1036843F40023036071
:101BE00003E0036823F4002303600161704721B11F
:101BF000026842F48022026003E0026822F480223C
:101C0000026070470AB1016100E0C160704701469F
:101C100000200A6802F400220AB1012000E000203E
:101C20007047014600200A6802F001020AB1012053
:101C300000E000207047014600204A6902F03800A9
:101C4000704730B503460A4600200024464DAB429B
:101C500002D24149103901E04349103902F00055E0
:101C60000DB14C6800E00C68414D2C4004EA0205BF
:101C70000DB1012000E0002030BD02463A4B9A42EF
:101C800002D23548103801E03748103801F00053CF
:101C90001BB1374B0B40C36002E0354B0B408360F8
:101CA000704710B501F080034BB122B1436943F096
:101CB0008003436103E0436923F08003436180298B
:101CC0000BD02AB1036801F01E042343036004E033
:101CD000036801F01E04A343036010BD70B5024603
:101CE000002000240025204EB24202D21A4B103BA5
:101CF00001E01D4B103B1F4E0E4036B11E2606EA7A
:101D0000D124166806EA040502E0566906F080054B
:101D100001F000560EB15C6800E01C68144E3440BF
:101D200004EA010616B10DB1012000E0002070BDEB
:101D300002460D4B9A4202D20748103801E00A4889
:101D4000103801F000531BB1094B0B40C36002E097
:101D5000074B0B4083607047106002403D0000203D
:101D6000400F002000003D20106402403F801CF026
:101D70007D0F7D0F3C0F3C0FF948006840F00100DB
:101D8000F74908600020F64908310860F448006807
:101D9000F4490840F2490860F348091D0860F34817
:101DA000EF4984310860F0481038091D0860EC489C
:101DB000006820F48020EA4908600020E8490C31DE
:101DC0000860E7498C31086070470021E44A921CA2
:101DD000117011460870704710B5014600220023AB
:101DE00000204A11012A02D1DD4C236808E0022AB2
:101DF00003D1DB4C7034236802E0D94C743423687F
:101E000001F01F02012494401C400CB1012000E0AD
:101E1000002010BD38B5002000900024002500BF30
:101E20003120FFF7D9FF05460098401C009000982C
:101E3000B0F5A04F01D0002DF2D03120FFF7CCFF3C
:101E400008B1012400E00024204638BD01460020EE
:101E5000C34A106820F0F80040EAC10010607047E3
:101E6000C349086070470021BD4A7032117011707B
:101E7000012802D004280AD104E00121B84A7032B6
:101E8000117005E00521B64A7032117000E000BF04
:101E900000BF7047B7490860704770B5049C41EABD
:101EA00082150126C6EB530645EA0645054345EA79
:101EB0000465AB4E361D356070BDAD490866704790
:101EC000820142EA0172A64B84331A607047A84926
:101ED0008866704710B5830143EA016343EA0273E1
:101EE0009F4C8834236010BDA14908677047A04902
:101EF000C864704702460020994B0833186820F0E8
:101F0000EC6042EA01031843954B083318607047B0
:101F100002460020924B0833186820F0784042EACD
:101F2000010318438E4B08331860704701460020A8
:101F30008B4A0832106820F0030008431060704795
:101F400087480830006800F00C0070470146002008
:101F5000834A0832106820F0F00008431060704790
:101F6000014600207E4A0832106820F4E050084301
:101F70001060704701460020794A0832106820F44A
:101F8000604040EAC10010607047F0B500210022B7
:101F90000024022500260223714F08373F6807F00E
:101FA0000C0121B1042905D0082937D105E0724F71
:101FB000076036E0714F076033E0694F3F1D3F68AF
:101FC000C7F38056664F3F1D3F6807F03F036EB171
:101FD0006A4FB7FBF3F7DFF888C10CF1040CDCF8AB
:101FE00000C0CCF3881C07FB0CF40CE0624FB7FB7D
:101FF000F3F7DFF86CC10CF1040CDCF800C0CCF393
:10200000881C07FB0CF4564F3F1D3F68C7F3014780
:102010007F1C7D00B4FBF5F7076002E0564F0760B8
:1020200000BF00BF4E4F08373F6807F0F0010909B5
:10203000534F7A5C0768D7404760494F08373F687D
:1020400007F4E051890A4E4F7A5C4768D7408760B1
:10205000434F08373F6807F46041490B484F7A5CAB
:102060004768D740C760F0BD002100F44072B2F568
:10207000407F0AD13A4A0832116821F4F811414AE6
:1020800002401143364A08321160354A70321268F4
:10209000C0F30B031A43324B70331A607047354953
:1020A0004439086070473349403908607047364901
:1020B0000860704701460020294A8C32106820F0E1
:1020C0001F004A1E1043264A8C321060704701469A
:1020D0000020234A8C32106820F4F8504A1E40EA4F
:1020E00002201F4A8C3210607047014600201C4AB3
:1020F0008C32106820F4401008431060704701468D
:102100000020174A8C32106820F440000843106009
:10211000704701460020124A8C32106820F440308B
:1021200008431060704719490860704739B10C4A7C
:102130003032126802430A4B30331A6006E0084A14
:10214000303212688243064B30331A607047F9B15F
:10215000034A343212680243014B34331A601CE0E4
:1021600000380240FFFFF6EA103000240030002063
:1021700000004742800E47420024F40000127A001B
:102180002A000020FFFCFF0F5C014742E01147429C
:102190008F4A126882438E4B1A60704739B18C4A5D
:1021A000121D126802438A4B1B1D1A6006E0884A02
:1021B000121D12688243864B1B1D1A60704739B18D
:1021C000834A0C3212680243814B0C331A6006E0DA
:1021D0007F4A0C32126882437D4B0C331A60704781
:1021E00039B17B4A103212680243794B10331A60BE
:1021F00006E0774A103212688243754B10331A603A
:10220000704739B1724A243A12680243704B243B3A
:102210001A6006E06E4A243A126882436C4B243BF3
:102220001A60704739B16A4A203A12680243684B13
:10223000203B1A6006E0664A203A12688243644BEB
:10224000203B1A60704739B1614A1C3A1268024358
:102250005F4B1C3B1A6006E05D4A1C3A12688243E1
:102260005B4B1C3B1A60704739B1594A143A1268EB
:102270000243574B143B1A6006E0554A143A126861
:102280008243534B143B1A60704739B1504A103A9D
:10229000126802434E4B103B1A6006E04C4A103A5B
:1022A000126882434A4B103B1A60704739B1484A62
:1022B0001C3212680243464B1C331A6006E0444A43
:1022C0001C3212688243424B1C331A60704739B18A
:1022D0003F4A2032126802433D4B20331A6006E029
:1022E0003B4A203212688243394B20331A607047D0
:1022F00039B1374A243212680243354B24331A600D
:1023000006E0334A243212688243314B24331A6088
:10231000704739B12E4A2C32126802432C4B2C33B1
:102320001A6006E02A4A2C3212688243284B2C336A
:102330001A60704739B1264A303212680243244B82
:1023400030331A6006E0224A303212688243204B52
:1023500030331A607047012808D11D493C310968A3
:1023600041F008011A4A3C32116007E018493C313B
:10237000096821F00801164A3C321160704739B1F2
:10238000134A273A12780243114B273B1A7006E092
:102390000F4A273A127882430D4B273B1A70704739
:1023A0000B484030006840F08070094940310860B7
:1023B000704701460020064A283A12680A400AB1CE
:1023C000012000E00020704701492639087070475D
:1023D0003438024010B50446FA48844208D101213D
:1023E0001020FFF752FF00211020FFF74EFF57E0AB
:1023F000F548844209D101214804FFF735FF002147
:102400004FF40030FFF730FF4AE0F048844209D132
:1024100001218804FFF728FF00214FF48020FFF7F7
:1024200023FF3DE0EA48844209D10121C804FFF7B7
:102430001BFF00214FF40020FFF716FF30E0E548B6
:10244000844209D101210805FFF70EFF00214FF456
:102450008010FFF709FF23E0DF48844208D1012103
:102460002020FFF712FF00212020FFF70EFF17E0CA
:10247000DA48844209D101218807FFF7F5FE0021DF
:102480004FF08040FFF7F0FE0AE0D548844207D1C4
:1024900001214005FFF7E8FE00216005FFF7E4FE9B
:1024A00010BD2DE9FF4705460E460024A14600BF9A
:1024B000A046B08900B100BF2C8A24F44054F088B3
:1024C00004432C82AC8941F20C608443B08831898A
:1024D0000843718908430443AC81AC8A24F44074F6
:1024E000B0890443AC826846FFF74FFDB54885428A
:1024F00002D0B948854202D1DDF80C9001E0DDF848
:102500000890A88900F4004040B109EBC90000EB35
:10251000091031684900B0FBF1F707E009EBC90089
:1025200000EB091031688900B0FBF1F76420B7FBBC
:10253000F0F004012009642101FB1078A88900F45F
:10254000004040B1322000EBC800B0FBF1F000F0D9
:102550000700044308E0322000EB08106421B0FBC0
:10256000F1F000F00F0004432C81BDE8FF874FF429
:102570001651016000218180C18001810C214181BF
:1025800000218181704710B502460020108A20F496
:1025900070600B884C8823438C882343CC8823436A
:1025A0001843108210BD0021018041808180C180CC
:1025B000704721B1828942F40052828104E082890D
:1025C0004DF6FF731A4082817047028B02F47F42FE
:1025D0000283028B0A430283704721B1828942F44D
:1025E0000042828103E08289C2F30E028281704739
:1025F00021B1828A42F40062828204E0828A4FF230
:10260000FF731A4082827047C1F3080282807047CC
:1026100001468888C0F308007047028A4FF6F073BD
:102620001A400282028A0A430282704721B18289DB
:1026300042F00202828104E082894FF6FD731A4063
:102640008281704782894FF2FF731A4082818289AA
:102650000A4382817047028A4FF6DF731A40028272
:10266000028A0A430282704721B1028A42F4804200
:10267000028204E0028A4BF6FF731A40028270471E
:10268000818941F001018181704721B1828A42F044
:102690000802828204E0828A4FF6F7731A4082822F
:1026A0007047028BD2B20283028B42EA012202837C
:1026B000704721B1828A42F02002828204E0828A3D
:1026C0004FF6DF731A408282704721B1828A42F04E
:1026D0001002828204E0828A4FF6EF731A408282EF
:1026E0007047828A4FF6FB731A408282828A0A43BD
:1026F0008282704721B1828A42F00202828204E023
:10270000828A4FF6FD731A40828270471AB1838A1B
:102710000B43838202E0838A8B4383827047F0B548
:102720000346002400260025002040F66A17B9421F
:1027300000D100BF1846C1F3421401F01F06012763
:1027400007FA06F5012C01D10C3004E0022C01D16E
:10275000103000E014301AB107682F43076002E020
:102760000768AF430760F0BD02460020B1F5007F67
:1027700000D100BF13880B400BB1012000E0002006
:10278000704701F40072B2F5007F00D100BFCA4368
:102790000280704770B50246002400230025002007
:1027A00040F66A16B14200D100BFC1F3421501F0F4
:1027B0001F03012606FA03F3012D13D19689334036
:1027C00017E00000001001400044004000480040B5
:1027D000004C0040005000400014014000780040D0
:1027E000007C0040022D02D1168A334001E0968A17
:1027F00033400C12012606FA04F41688344013B153
:102800000CB1012000E0002070BD10B500220023B3
:1028100040F66A14A14200D100BF0A12012494407C
:10282000A3B2DC43048010BD10B50446FE488442C8
:1028300008D101210846FFF728FD00210120FFF7FC
:1028400024FD9DE0B4F1804F08D101210846FFF737
:102850000BFD00210120FFF707FD91E0F3488442C2
:1028600008D101210220FFF7FFFC00210220FFF721
:10287000FBFC85E0EE48844208D101210420FFF7EB
:10288000F3FC00210420FFF7EFFC79E0E9488442E3
:1028900008D101210820FFF7E7FC00210820FFF7FD
:1028A000E3FC6DE0E448844208D101211020FFF7E9
:1028B000DBFC00211020FFF7D7FC61E0DF488442F9
:1028C00008D101212020FFF7CFFC00212020FFF7B5
:1028D000CBFC55E0DA48844208D101210220FFF701
:1028E000D4FC00210220FFF7D0FC49E0D548844207
:1028F00009D101210804FFF7C8FC00214FF4803002
:10290000FFF7C3FC3CE0D048844209D101214804D0
:10291000FFF7BBFC00214FF40030FFF7B6FC2FE0BF
:10292000CA48844209D101218804FFF7AEFC002186
:102930004FF48020FFF7A9FC22E0C548844208D16B
:1029400001214020FFF790FC00214020FFF78CFC84
:1029500016E0C048844208D101218020FFF784FCA2
:1029600000218020FFF780FC0AE0BB48844207D1A9
:1029700001218015FFF778FC0021A015FFF774FCFA
:1029800010BD00220288A84B98420ED0AC4B984252
:102990000BD0B0F1804F08D0A44B984205D0A44B87
:1029A000984202D0A34B984204D14FF68F731A403D
:1029B0004B881A43A04B984207D0A04B984204D0B2
:1029C0004FF6FF431A400B891A4302804B68C362DB
:1029D0000B880385944B984202D0994B984201D1C1
:1029E0008B7A03860123838270474FF0FF31416069
:1029F00000210180018141808172704701858282BE
:102A000070470A46002101884FF68F731940114321
:102A10000180704741627047C16270470146486A51
:102A200070470146088D704721B1028842F00202CA
:102A3000028004E002884FF6FD731A40028070475E
:102A400021B1028842F00402028004E002884FF6BD
:102A5000FB731A400280704721B1028842F0800265
:102A6000028004E002884FF67F731A4002807047AC
:102A700002884FF6F7731A40028002880A430280E8
:102A8000704702884FF6FF431A40028002880A43CB
:102A90000280704721B1028842F00102028004E006
:102AA00002884FF6FE731A400280704770B500240A
:102AB00000220023058C4FF6FE7635400584028CFB
:102AC0008388048B4FF68F752C40B51E2C400D88E3
:102AD0002C43751E2A408D892A434D882A43524D26
:102AE000A84202D0564DA84213D14FF6F7752A409E
:102AF000CD892A434FF6FB752A408D882A434FF62D
:102B0000FF652B404FF6FF552B400D8A2B434D8A16
:102B10002B43838004838D684563028470BD70B548
:102B2000002400220023058C4FF6EF763540058403
:102B3000028C8388048B48F6FF752C404FF6FF45C6
:102B40002C400D884FF6FF7606EA05252C434FF6FC
:102B5000DF752A408D8906EA05152A434D8806EA65
:102B600005152A43304DA84202D0354DA8421DD14B
:102B70004FF67F752A40CD894FF6FF7606EA051598
:102B80002A434FF6BF752A408D8806EA05152A4369
:102B90004FF6FF352B404FF2FF752B400D8A06EAAA
:102BA00085052B434D8A06EA85052B4383800483E4
:102BB0008D688563028470BD70B5002400220023F7
:102BC000058C4FF6FF6635400584028C8388848B24
:102BD0004FF68F752C404FF6FC752C400D882C431A
:102BE0004FF6FF552A408D894FF6FF7606EA0525F8
:102BF0002A434D8806EA05252A430B4DA84202D0F8
:102C00000F4DA84238D14FF2FF752A40CD894FF6BB
:102C1000FF7606EA05252A434FF6FF352A408D88C0
:102C200006EA05252A4319E000000140000400409F
:102C300000080040000C004000100040001400405C
:102C400000040140004001400044014000480140B0
:102C500000180040001C0040002000404EF6FF75A8
:102C60002B404DF6FF752B400D8A06EA05152B43C8
:102C70004D8A06EA05152B43838084838D68C563DE
:102C8000028470BD70B5002200230024058C4EF62E
:102C9000FF7635400584038C8488828B48F6FF7567
:102CA0002A404FF6FF452A400D884FF6FF7606EA88
:102CB00005252A434DF6FF752B408D8906EA05351B
:102CC0002B434D8806EA05352B43FE4DA84202D022
:102CD000FD4DA84208D14BF6FF752C400D8A4FF6EA
:102CE000FF7606EA85152C43848082838D6805640F
:102CF000038470BD002101804180818081608181D9
:102D0000C18101824182704770B5034600200024D2
:102D10001846183001258D40ACB21D8CA5431D848A
:102D200009B108290AD100EB610005684FF68F76DA
:102D3000354005600568154305600FE00D1FC5F3BC
:102D40004E052844056848F6FF763540056005685D
:102D50004FF6FF7606EA02263543056070BD4163F3
:102D6000704781637047C1637047016470470A46CA
:102D70000021018B4FF68F73194011430183704777
:102D80000A460021018B48F6FF7319404FF6FF7386
:102D900003EA02231943018370470A460021818B0D
:102DA0004FF68F7319401143818370470A46002103
:102DB000818B48F6FF7319404FF6FF7303EA022335
:102DC0001943818370470A460021018B4FF6F77340
:102DD00019401143018370470A460021018B4FF2CD
:102DE000FF7319404FF6FF7303EA0223194301836F
:102DF00070470A460021818B4FF6F7731940114343
:102E0000818370470A460021818B4FF2FF7319407E
:102E10004FF6FF7303EA02231943818370470A4682
:102E20000021018B4FF6FB7319401143018370475A
:102E30000A460021018B4FF6FF3319404FF6FF730E
:102E400003EA02231943018370470A460021818B5C
:102E50004FF6FB7319401143818370470A460021E6
:102E6000818B4FF6FF3319404FF6FF7303EA0223BD
:102E70001943818370470A460021018B4FF67F7307
:102E800019401143018370470A460021018BC1F3A9
:102E90000E014FF6FF7303EA0223194301837047C3
:102EA0000A460021818B4FF67F73194011438183BD
:102EB00070470A460021818BC1F30E014FF6FF7364
:102EC00003EA02231943818370470A460021018CDB
:102ED0004FF6FD7319401143018470470A460021E3
:102EE000018C4FF6F77319401143018470470A466D
:102EF0000021018C4FF6DF7319404FF6FF7303EA90
:102F000002131943018470470A460021018C4FF6D1
:102F10007F7319404FF6FF7303EA021319430184CC
:102F200070470A460021018C4FF6FF5319404FF6B7
:102F3000FF7303EA02231943018470470A46002104
:102F4000018C4FF2FF7319404FF6FF7303EA02231F
:102F50001943018470470A460021018C4DF6FF7326
:102F600019404FF6FF7303EA023319430184704797
:102F700030B5002301248C40A3B2048C9C4304840C
:102F8000048C02FA01F5ADB22C43048430BD30B597
:102F9000002304248C40A3B2048C9C430484048C3E
:102FA00002FA01F5ADB22C43048430BD828B4FF29E
:102FB000FF331A408283828B4FF6FF7303EA0123AB
:102FC0001A4382837047F0B50C4615460021002253
:102FD0000026078C4EF6FF7C07EA0C070784818BDE
:102FE000028C4FF6FF7707EA043640F6FF47394078
:102FF0004FF6FF7707EA052739434FF6FF7707EAD1
:103000000337394345F6FF773A4046F480573A4351
:1030100081830284F0BD828B4FF6F3731A40828362
:10302000828B0A4382837047F0B50C461546002117
:1030300000220026078C4FF6FF6C07EA0C07078476
:10304000818B028C4FF6FF7707EA04264FF60C7748
:1030500039404FF6FF7707EA03172F4339434FF202
:10306000FF573A4046F480773A4381830284F0BDAB
:10307000028B4FF2FF331A400283028B4FF6FF732D
:1030800003EA01231A4302837047F0B50C46154644
:10309000002100220026078C4FF6EF7C07EA0C0780
:1030A0000784018B028C4FF6FF7707EA041640F67F
:1030B000FF4739404FF6FF7707EA033739434FF6AA
:1030C000FF7703E0000001400004014007EA052704
:1030D00039434FF65F773A4046F010073A43018391
:1030E0000284F0BD028B4FF6F3731A400283028B09
:1030F0000A4302837047F0B50C46154600210022B2
:10310000068C4FF6FE773E400684018B028C4FF60C
:103110000C7631407E1C06EA03162E4331434FF6EF
:10312000F576324044F00106324301830284F0BD5B
:1031300070B505460C46208850B92389A28861885D
:103140002846FFF7D8FFE1882846FFF7CBFF25E0A8
:10315000208804280AD12389A28861882846FFF79D
:1031600094FFE1882846FFF783FF17E020880828AE
:103170000AD12389A28861882846FFF755FFE18894
:103180002846FFF748FF09E02389A288618828467E
:10319000FFF719FFE1882846FFF708FF70BD0021FF
:1031A00001804180012181800021C180018170471F
:1031B0002DE9F04105460C4600260127608808B934
:1031C000022600E00026A088012801D1022700E0A5
:1031D00001272088A0B92389A28861882846FFF7A3
:1031E0008AFFE1882846FFF77DFF23893A4631466A
:1031F0002846FFF74AFFE1882846FFF739FF13E02A
:103200002389A28861882846FFF73FFFE188284686
:10321000FFF72EFF23893A4631462846FFF76BFF1A
:10322000E1882846FFF75EFFBDE8F0810146486B64
:1032300070470146886B70470146C86B704701466E
:10324000086C70470A884B881A438B881A43CB88CE
:103250001A430B891A434B891A438B891A43A0F8E6
:10326000442070470021018041808180C18001811C
:1032700041818181704731B1B0F8442042F400426D
:10328000A0F8442005E0B0F84420C2F30E02A0F8F4
:103290004420704721B1828842F00402828004E019
:1032A00082884FF6FB731A408280704721B1828872
:1032B00042F00102828004E082884FF6FE731A40D9
:1032C000828070471AB183890B43838102E083892E
:1032D0008B43838170478182704702460020138AA6
:1032E0000B400BB1012000E000207047CA4302826E
:1032F000704730B50246002000230024158A05EAF5
:103300000103958905EA010413B10CB1012000E025
:10331000002030BDCA430282704741EA0203A0F890
:10332000483070471AB183890B43838102E0838957
:103330008B438381704721B1828842F008028280EA
:1033400004E082884FF6F7731A4082807047018943
:103350004FF6F8721140018170470A460021018939
:103360004FF68F73194011430181704730B5044601
:103370000D4629462046FFF7F0FF208940F0070060
:10338000208130BD2DE9F04104460D4616461F460A
:10339000602D06D13B46012231462046FFF775FEDF
:1033A00005E03B46012231462046FFF7A4FE2946B0
:1033B0002046FFF7D2FF208940F007002081BDE8BA
:1033C000F08130B50C4600210189C9B24FF6FF7576
:1033D00005EA0325154325432943018130BD2DE925
:1033E000F04105460E4617469846002443463A46A5
:1033F00031462846FFF7E5FF2C894FF6F870044068
:1034000044F007044FF68F70044044F070042C81A0
:10341000BDE8F081F0B504460D4616461F463B4612
:10342000324629462046FFF7CCFF208940F48040F1
:103430002081F0BD82884FF68F731A408280828887
:103440000A438280704702894FF6F8731A4002815E
:1034500002890A430281704702894FF67F731A403E
:10346000028102890A4302817047F0B50C46154675
:103470001E460021002200230189028B038C4FF697
:10348000F877394021434FF6FC473A4040F20117A4
:103490003A434FF6DD773B404FF6FF7707EA0617D2
:1034A0002F433B43018102830384F0BD21B1828815
:1034B00042F08002828004E082884FF67F731A40D7
:1034C00082807047A0F850107047000010B5044685
:1034D000FB48844208D101218014FEF7D6FE00216A
:1034E000A014FEF7D2FE3CE0F648844208D1012148
:1034F0000014FEF7B9FE00212014FEF7B5FE30E0FF
:10350000F148844208D10121C013FEF7ADFE00212D
:10351000E013FEF7A9FE24E0EC48844208D1012123
:103520004014FEF7B2FE00216014FEF7AEFE18E074
:10353000E748844209D101210805FEF7A6FE0021D3
:103540004FF48010FEF7A1FE0BE0E248844208D160
:1035500001214805FEF799FE00214FF40010FEF707
:1035600094FE10BD10B50022028802F441520B886F
:103570004C8823438C882343CC8823430C892343E2
:103580004C8923438C892343CC8923431A430280EB
:10359000838B4FF2FF74234083830B8A038210BD19
:1035A0002DE9F04F0025022300244FF001090022ED
:1035B0000026002794469046B0F81CA04FF2400B1E
:1035C0000AEA0B0AA0F81CA04FF0020AA0F820A0FB
:1035D000858BD1F808A0BAF1020F01D100BF82E0BB
:1035E000B1F804A0BAF1000F02D14FF0010901E0D7
:1035F0004FF00209DFF8E0A2DAF800A00AF4000AAE
:10360000BAF1000F09D0DFF8D0A2DAF800A02AF44E
:10361000000ADFF8C4B2CBF800A0DFF8BCA20AF1C0
:103620007C0ADAF800A0CAF3881CDFF8ACA20AF121
:103630007C0ADAF800A0CAF30278DFF89CA2AAF1AB
:10364000040ADAF800A00AF03F07DFF88CA2AAF11A
:10365000040ADAF800A00AF4800ABAF5800F08D14B
:10366000DFF878A2BAFBF7FA0AFB0CFABAFBF8F615
:1036700007E0DFF86CA2BAFBF7FA0AFB0CFABAFB18
:10368000F8F6B1F806A0BAF5007F0ED14FEA162A77
:103690000AEB8A0A4FEA4A0AD1F808B0BAFBFBFAE9
:1036A0000AF1050A1FFA8AF20FE04FEA491AB6FB3F
:1036B000FAFA0AEB8A0A4FEA4A0AD1F808B0BAFBCA
:1036C000FBFA0AF1050A1FFA8AF24FF00A0AB2FB66
:1036D000FAF202F00104A2EB040ACAF34F034FF618
:1036E000FF7A0AEA0424022B01DBFF2B01DD02230F
:1036F0000024B1F806A04AEA040A4AEA030AA0F83C
:1037000020A0B1F804A0B1F80CB04AEA0B0AB1F855
:1037100002B04AEA0B0AB1F800B04AEA0B0A4AF4CE
:10372000006A4AEA05058583BDE8F08F0021018023
:1037300041808180C180018141818181C1810721D6
:10374000018270470021018041808180C180022177
:10375000816000218181704721B1028842F04002DE
:10376000028004E002884FF6BF731A40028070475F
:1037700021B1828B42F48062828304E0828B4FF617
:10378000FF331A408283704702884FF2FF731A405A
:10379000028002880A4302807047B1F5804F04D14D
:1037A000028842F48042028004E002884BF6FF73F4
:1037B0001A40028070474FF6FF62914204D002889F
:1037C00042F48072028004E002884FF6FF631A40E0
:1037D0000280704721B1828842F00402828004E0B6
:1037E00082884FF6FB731A408280704721B182882D
:1037F00042F01002828004E082884FF6EF731A4094
:103800008280704730B500220023848B4FF2400540
:103810002C40848302240484828B0C88B4F5007FBE
:1038200001D00C8814B94FF4807308E00C88B4F50B
:10383000407F03D00C88B4F5807F00D100238C88B2
:103840008D892C434D882C431C4344F4006422434F
:10385000828330BD0146888970478181704721B1DC
:10386000028842F40052028004E002884DF6FF73A1
:103870001A4002807047018841F4805101807047EE
:1038800002460020012901D0108B00E0908A704789
:103890000146088A70471AB183880B43838002E08F
:1038A00083888B438380704730B5002400230C113C
:1038B0000125A540ABB2AAB185881D43858014E0DF
:1038C0000030014000380040003C0040003401401E
:1038D00000500140005401400838024000127A00B4
:1038E0000024F40085889D43858030BD0246002079
:1038F00013890B400BB1012000E000207047CA4340
:1039000002817047F0B50246002000240023002504
:1039100001F00F070126BE40B4B20B1101269E40F4
:10392000B3B2968806EA03051689264016B10DB192
:10393000012000E00020F0BD10B5002201F00F04CE
:103940000123A3409AB2D343038110BD10B50446AE
:10395000FE48844209D101214806FEF785FC00217A
:103960004FF00070FEF780FC08E001218806FEF7AA
:103970007BFC00214FF08060FEF776FC10BD30B577
:10398000024600200023146824F002041460146826
:1039900044F00104146000E05B1C546804F001046E
:1039A0001CB94FF6FF74A342F6D1546804F0010429
:1039B0000CB900206CE08C79012C04D1146844F01F
:1039C0008004146003E0146824F080041460CC794F
:1039D000012C04D1146844F04004146003E014681E
:1039E00024F0400414600C7A012C04D1146844F0D3
:1039F0002004146003E0146824F0200414604C7A5E
:103A0000012C04D1146844F01004146003E014681D
:103A100024F0100414608C7A012C04D1146844F052
:103A20000804146003E0146824F008041460CC7ADD
:103A3000012C04D1146844F00404146003E01468F9
:103A400024F0040414608C78A407CD7844EA05645B
:103A50000D7944EA05444D7944EA05540D886D1EFC
:103A60002C43D461146824F001041460002300E0A6
:103A70005B1C546804F001041CB14FF6FF74A342B0
:103A8000F6D1546804F001040CB1002000E00120DC
:103A900030BD10B50021837A012202FA03F1AC4A4D
:103AA000126842F00102AA4B1A60A94A1C3212683D
:103AB0008A43A74B1C331A60027BCAB9A44A0C3252
:103AC00012688A43A24B0C331A604288C38842EAC8
:103AD00003439F4A4032847A42F834300288838814
:103AE00042EA03439A4A4032847A02EBC4025360AA
:103AF000027B012A19D1964A0C3212680A43944B70
:103B00000C331A604288038842EA0343904A4032E9
:103B1000847A42F83430C288838842EA03438C4A6C
:103B20004032847A02EBC4025360C27A3AB9884ABE
:103B3000121D12688A43864B1B1D1A6006E0844AD8
:103B4000121D12680A43824B1B1D1A60028932B98A
:103B50007F4A143212688A437D4B14331A600289FB
:103B6000012A06D17A4A143212680A43784B143378
:103B70001A60427B012A06D1754A1C3212680A4338
:103B8000734B1C331A60724A126822F00102704BA8
:103B90001A6010BD00218171C17101724172817280
:103BA000C1728170C1700321017102214171012133
:103BB000018070476649096841F00101644A11605B
:103BC0001146096843F60E729143614A116011462D
:103BD000096841EA002111601146096821F00101DC
:103BE0001160704721B1026842F48032026003E044
:103BF000026822F4803202607047E1B1026842F04C
:103C0000800202604FF4C272125842F480734FF483
:103C1000C27213504FF4CA72125842F480734FF4B8
:103C2000CA7213504FF4D272125842F480734FF498
:103C3000D27213501BE0026822F0800202604FF43F
:103C4000C272125822F480734FF4C27213504FF4B0
:103C5000CA72125822F480734FF4CA7213504FF490
:103C6000D272125822F480734FF4D27213507047FC
:103C700010B502460020936803F08063B3F1806FB3
:103C800000D110E0936803F00063B3F1006F01D13D
:103C9000012008E0936803F08053B3F1805F01D105
:103CA000022000E00420042879D002F5C07303EB61
:103CB00000131B6803F0010402F5C07303EB00134B
:103CC0001C600B7A7BB94B7A0C8843EA445302F5AB
:103CD000C07404EB00142468234302F5C07404EBA1
:103CE0000014236010E00B7A4C6843EAC4034C7A5A
:103CF000234302F5C07404EB00142468234302F547
:103D0000C07404EB001423608B7A03F00F038B72F2
:103D100002F5C07303EB00135B6823F00F0402F598
:103D2000C07303EB00135C6002F5C07303EB001378
:103D30005B688C7A234302F5C07404EB0014636063
:103D40008B7B1C064B7B44EA034403E00064004089
:103D5000006600400B7B44EA0323CC7A234302F540
:103D6000C07404EB0014A3608B7C1C064B7C44EAFB
:103D700003440B7C44EA0323CC7B234302F5C07449
:103D800004EB0014E36002F5C07303EB00131B683F
:103D900043F0010402F5C07303EB00131C6010BD77
:103DA00010B50246002321B1012907D002290FD105
:103DB00009E09068F94C00EA04030BE09068F84CC5
:103DC00000EA040306E09068F64C00EA040301E010
:103DD000002300BF00BFF44C181BA34216D007DC21
:103DE00083B16FF08060184470B1022818D111E0DF
:103DF000B0F5007F10D0ED4C204448B1B0F5003F45
:103E00000ED10BE002230DE000230BE0002309E0BC
:103E1000002307E0012305E0012303E0012301E083
:103E2000002300BF00BFD8B210BD21B1012907D0C7
:103E300002290FD109E0826842F0800282600AE024
:103E4000826842F40042826005E0826842F4000227
:103E5000826000E000BF00BF704710B500F5D87366
:103E600003EB01131B6803F004031372137A53B9B5
:103E700000F5D87303EB01131B6840F2FF7404EAEA
:103E80005353136009E000F5D87303EB01131B686B
:103E90006FF0604404EAD303536000F5D87303EB7A
:103EA00001131B6803F00203537200F5D87303EB90
:103EB00001135B6803F00F03937200F5D87303EBF3
:103EC00001135B681B0AD37400F5D87303EB01136D
:103ED0009B68D37200F5D87303EB01139B681C0A2F
:103EE000147300F5D87303EB01139B681C0C547317
:103EF00000F5D87303EB01139B681B0E937300F559
:103F0000D87303EB0113DB68D37300F5D87303EBAD
:103F10000113DB681C0A147400F5D87303EB01135A
:103F2000DB681C0C547400F5D87303EB0113DB68D9
:103F30001B0E937421B9C36843F02003C36003E0F0
:103F4000036943F02003036110BD21B9C26842F048
:103F50002002C26003E0026942F020020261704761
:103F60000246002019B9D36803F0030006E00129D6
:103F700003D1136903F0030000E00020704710B57F
:103F800002460B4600204FF6FF71BBB9146824F0BF
:103F9000020444F00104146000E0491E546804F077
:103FA0000304012C01D00029F7D1546804F0030464
:103FB000012C01D0002032E0012030E0012B13D190
:103FC000146824F00304146000E0491E546804F0EF
:103FD00003040CB10029F8D1546804F003040CB1B7
:103FE00000201CE001201AE0022B17D1146824F0F5
:103FF000010444F00204146000E0491E546804F017
:104000000304022C01D00029F7D1546804F0030402
:10401000022C01D0002002E0012000E0002010BDB1
:10402000014600200A6822F0010242F002020A6002
:104030004A6802F00302022A00D1012070470146BB
:104040004FF6FF7200200B6823F002030B6000E0C4
:10405000521E4B6803F00203022B01D1002AF7D154
:104060004B6803F00203022B00D001207047014689
:1040700000208A6902F070007047014600208A69BA
:10408000100E7047014600208A69C2F3074070474E
:104090001AB143690B43436102E043698B434361B7
:1040A000704710B50246002001F4700343B19369D4
:1040B000C1F3130423400BB101202DE000202BE0BD
:1040C00001F0807343B15368C1F3130423400BB173
:1040D000012021E000201FE001F0006343B193685C
:1040E000C1F3130423400BB1012015E0002013E0BD
:1040F00001F0007343B1D368C1F3130423400BB143
:10410000012009E0002007E01369C1F313042340F4
:104110000BB1012000E0002010BD0022244B994289
:1041200002D10023836111E0C1F3130201F0007397
:104130000BB1C2600AE001F080630BB1026105E0DF
:1041400001F000630BB1826000E0426070470246FC
:10415000002002EA01030BB1012000E000207047BB
:1041600070B504460D46002660692840002872D0CC
:10417000B5F5807F69D01DDC082D42D006DC012D0D
:104180002DD0022D31D0042D7FD134E0102D3ED022
:10419000202D42D0402D78D145E0000003000004DE
:1041A0000003000800000310000100080001FFF7F1
:1041B0007000F030B5F5004F61D009DCB5F5007F37
:1041C0004AD0B5F5806F4DD0B5F5006F5DD150E0A8
:1041D000B5F5803F2DD0B5F5003F56D12FE0A06852
:1041E0005549FFF7B4FF064651E0E0680321FFF7A9
:1041F000AEFF06464BE0E0680821FFF7A8FF064641
:1042000045E0E0681021FFF7A2FF06463FE0206985
:104210000321FFF79CFF064639E020690821FFF7DC
:1042200096FF064633E020691021FFF790FF06460F
:104230002DE060680821FFF78AFF064627E06068E6
:104240001021FFF784FF064621E0A0690121FFF756
:104250007EFF06461BE01BE0A0690221FFF777FF07
:10426000064614E0A0690421FFF771FF06460EE040
:104270000BE0A0697021FFF76AFF064607E060685F
:104280000421FFF764FF064601E0002600BF00E0BE
:104290000026304670BDB1F5007F3AD00FDC2029F2
:1042A00028D006DC01291CD004291DD0082940D1C2
:1042B0001DE0402921D0B1F5807F3AD126E0B1F54B
:1042C000004F31D006DCB1F5806F25D0B1F5006F1D
:1042D0002FD124E0B1F5803F12D0B1F5003F28D1B5
:1042E00011E0154A826025E00822C26022E0102217
:1042F000C2601FE0082202611CE01022026119E086
:104300000822426016E01022426013E0042242605C
:1043100010E0042242600DE0042242600AE0002224
:1043200082610422426005E0002282610422426030
:1043300000E000BF00BF7047010101001CB5012172
:104340000802FDF7F3FE4020694908830090012030
:104350008DF8040000208DF8060003208DF805007C
:1043600001208DF8070069466148FDF76DFA0121CB
:104370000802FDF7DBFE80205D49088300900120E4
:104380008DF8040000208DF8060003208DF805004C
:1043900001208DF8070069465548FDF755FA1CBD08
:1043A00000B587B001210320FDF7C0FE80200590F5
:1043B00002208DF8180000208DF81A0003208DF8D7
:1043C000190001208DF81B0005A94A48FDF73CFAA9
:1043D000052207214748FDF7C2FA0820059005A9E4
:1043E0004548FDF731FA052203214348FDF7B7FAA6
:1043F000052204214048FDF7B2FA01210803FDF728
:10440000EFFE01210803FDF740FF00214FF480502B
:10441000FDF73BFF0020ADF800004FF48270ADF8CF
:1044200002000020ADF80400ADF80600ADF8080069
:104430004FF40070ADF80A001820ADF80C00002011
:10444000ADF80E000720ADF8100069462B48FFF7C5
:1044500089F801212948FFF77FF907B000BD10B5A1
:104460000446264800884FF6C77108402349088053
:10447000084600882043088001212048FFF76CF996
:1044800010BD10B5FFF75AFFFFF78AFF10BD18B136
:104490008021174A118302E08021154A5183704719
:1044A00018B14021124A118302E04021104A518381
:1044B000704710B504462046FCF7DEFE10BD10B56F
:1044C000044600BF02210D48FFF710FA0028F9D07A
:1044D00021460A48FFF7C1F900BF01210748FFF74D
:1044E00005FA0028F9D00548FFF7B4F9C0B210BDAD
:1044F0000020024000000240000402400030014061
:1045000070B5044600250AE0002604E0FA20FFF713
:10451000D0FF701C86B2042EF8DB681C85B2A54261
:10452000F2DB70BD10B50020FFF7BAFF0120FFF7E6
:10453000E7FF0020FFF7ABFF0520FFF7E1FF0120B9
:10454000FFF7A5FF4FF49670FFF7DAFF0120FFF7A2
:10455000A7FF40F2ED10FFF7D3FF10BDF8B50646F8
:104560000C4600200090002512E06946304600F01D
:1045700034FD012805D163A1304600F0EBF900B10C
:1045800008E04FF47A70FFF7BBFF00BF681C85B2EC
:10459000AC42EADC00BFAC4201DC0020F8BD0120E7
:1045A000FCE710B594B0594C00201390FF201290F6
:1045B00000200E900F90109011900490FFF7B2FF22
:1045C0002820FFF74CFF524C0120FFF799FF04AA67
:1045D0002146504800F048FB08B900BFFEE701A89B
:1045E00000F044FD08B900BFFEE74B480390039874
:1045F00000F066FD0290DDE90201884206D2DDE9A5
:104600000210401A052801D900BFFEE704AA0021C4
:10461000022001F086F910B9002014B010BD04A9E1
:1046200013A800F065FC08B90020F6E79DF84C00DF
:10463000012803D09DF84C00032820D104A814239E
:10464000002236A1009038A000F0EEFD08B900204D
:10465000E3E70A210EA8FFF781FF08B90020DCE795
:1046600004A912A800F07CFC08B90020D5E704AA30
:1046700005A906A801F0F4F808B90020CDE701204B
:10468000CBE72DE9FF4104460D4616461F46DDF8EF
:1046900028800020039003A814213B463246CDE930
:1046A000008102902946204601F08AF904B0BDE855
:1046B000F08138B504466A462146032001F0C0FA6D
:1046C00008B9002038BD002C0ADD0020FFF7E8FE05
:1046D00004F57A7188B2FFF713FF0120FFF7E0FEBF
:1046E0000120EFE708B56A460021032001F0A8FA8F
:1046F00008B9002008BD0120FCE710B5FFF751FF05
:1047000010BD0000302E302E302E3000005A6202D4
:10471000F406140000300140A08601003132333429
:104720003536373839300000416E796C696E6B6907
:104730006E2100000EB5FFF7A4FEFFF732FF3548EB
:104740001421354A127841F64173CDE900210290D7
:1047500032A2591E022001F033F908B900BFFEE76A
:104760000EBD10B50220012802D002284ED123E050
:10477000284B002201212C4801F0C8F8002410E049
:10478000002024490880294A128891B2284A1268D8
:10479000264B1B6804FB03201E4B002201F0B6F8D9
:1047A000641C244800688442EAD31A4B0022022188
:1047B0001D4801F0ABF82AE01F4800781F49087037
:1047C0001D48407848701C484088001288701A487C
:1047D0008078C870184880880012087116480079DF
:1047E00048711548C0880012887113488079C871D3
:1047F00011480089001208720F48007A4872054B70
:1048000000220A210D4801F081F800E000BF00BF3E
:1048100010BD00003C0000203E0000203139322E47
:104820003136382E342E32004C000020400000205B
:1048300048000020440000208C4E00204E00002044
:10484000704700000FB4044910B503AA029800F0A5
:104850001FF910BC5DF814FB240000202DE9F04185
:104860000E460446002020622046E168884730B3A7
:10487000252805D0D4E901219047206A401CF2E7A1
:10488000E168204600278847050018D0A5F14100BF
:10489000192802D820354FF40067324629462046B1
:1048A0002760FBF7ABFC40B1012804D0F61D26F0D1
:1048B00007060836D8E7361DD6E72846DAE7206A25
:1048C000BDE8F0812DE9F041064600241068752905
:1048D000314616A510D0AFF30080002802DA40421E
:1048E00013A507E031688A0701D512A502E0490740
:1048F00004D511A5012401E0AFF3008000210A22B4
:1049000006F1240709E0B0FBF2FCB0FBF2F302FB76
:104910001C00303078541846491C0028F3D1234637
:104920002A463046BDE8F04100F058B800000000CB
:104930002D0000002B0000002000000001F0FF030C
:10494000114601B543EA032242EA024200F0B4F8FC
:1049500001BD00004FF0013C50F8042B51F8043B1E
:104960009A4221D1A2EB0C03934313EACC1317D143
:1049700050F8042B51F8043B9A4215D1A2EB0C03DA
:10498000934313EACC130BD150F8042B51F8043B9A
:104990009A4209D1A2EB0C03934313EACC13DBD068
:1049A0004FF00000704700BFD01A01BAB1FA81F190
:1049B00001F0180122FA01F0CB40C1F12001DBB275
:1049C000C0B2C01A2CFA01F3D11A914311EAC311F3
:1049D000E6D1704770477047704770472DE9F04740
:1049E0000D4699469246044600F12408016888065F
:1049F00004D5E06921F01001216000E00120A84207
:104A000001DD471B00E00027A1697A1902EB0900CC
:104A1000081AA0612078C00602D42046AFF30080B7
:104A2000002608E0D4E901211AF806009047206A20
:104A3000401C761C20624E45F4DB2078C0060AD567
:104A40002046AFF3008006E0D4E9012130209047F2
:104A5000206A401C2062381EA7F10107F4DC07E041
:104A6000D4E9012118F805009047206A401C206213
:104A7000281EA5F10105F3DC2046AFF30080207865
:104A8000000602D50220BDE8F0870120FBE7000008
:104A9000074B70B50D467B4400F033F804462846BA
:104AA00000F042F810B14FF0FF3070BD204670BDED
:104AB000B3C8FFFF4FF000020429C0F0128010F0CD
:104AC000030C00F03780CCF1040CBCF1020F18BFCE
:104AD00000F8012BA8BF20F8022BA1EB0C0100F07D
:104AE00029B85FEAC17C24BF00F8012B00F8012B34
:104AF00048BF00F8012B704701694A1C0261087821
:104B0000704700B58FB0CDE901310021059105490D
:104B10007944CDE9031011466846FFF79FFE0FB0B8
:104B200000BD0000E5FFFFFF007B00F08000704744
:104B30004FF0000200B5134694469646203922BF36
:104B4000A0E80C50A0E80C50B1F12001BFF4F7AF81
:104B5000090728BFA0E80C5048BF0CC05DF804EB63
:104B6000890028BF40F8042B08BF704748BF20F8D1
:104B7000022B11F0804F18BF00F8012B70477546CB
:104B800000F02CF8AE4605006946534620F00700B9
:104B9000854618B020B5FCF789FCBDE820404FF0F1
:104BA00000064FF000074FF000084FF0000B21F017
:104BB0000701AC46ACE8C009ACE8C009ACE8C009E4
:104BC000ACE8C0098D46704710B50446AFF30080CD
:104BD0002046BDE81040FBF725BB000000487047A9
:104BE000604F002010B41A4B1C68236823F00103A7
:104BF0002360E0606260174B1868036823F00103CC
:104C00000360C1604260144B1B68144A9A60144BE5
:104C10001A689389138913F0020FFBD0036843F0DD
:104C200001030360236843F0010323600D4B1B68FD
:104C30001B6813F4001FF9D0236823F001032360DD
:104C4000036823F0010303605DF8044B704700BF65
:104C5000D04F0020C84F0020CC4F002000007D0F17
:104C6000C04F0020C44F002030B583B00D4614461D
:104C700000230193334A1060334A1370334B984238
:104C800003D003F58063984202D12F4B01221A70A2
:104C90000CB100232380038803F0380301930388B9
:104CA0009BB223F038039BB20380038843F01003C8
:104CB000038003889BB223F001039BB20380244B43
:104CC0009D4230D92146012001F04AFD034638B308
:104CD0001C4B1A6813889BB223F038039BB21380D5
:104CE000019B11880B439BB21380194B9D4203D942
:104CF000138843F001031380FA20FFF7DAFBFA2050
:104D0000FFF7D7FBFA20FFF7D4FBFA20FFF7D1FB20
:104D10002346104A0021084600F093F8034650B994
:104D2000184603B030BD2146022001F019FD0346AC
:104D30000028CDD1F4E70849064801F09BFF012384
:104D4000EEE700BFC04F00201E500020003800409A
:104D5000FF2C3101580000209C6D00080D4B0022F3
:104D60001A800D4B19680B8913F0020F08D1094AFC
:104D7000138801339BB213804EF660229342F0D920
:104D8000087300BF00BF054B1B780BB100BF00BF0D
:104D9000704700BF1C500020C04F00201E50002054
:104DA000194B00221A8008E017490B8801339BB287
:104DB0000B804EF660218B420CD8144B1A68138975
:104DC00013F0800FF0D1138903F4C053002BEBD103
:104DD00000E09389138903F04103002BF9D110738C
:104DE000094B00211980138913F0010F08D10649DE
:104DF0000B8801339BB20B804EF660218B42F2D9B7
:104E00009089C0B2704700BF1C500020C04F0020E6
:104E100010B582B0049C0194009313460A460146E3
:104E2000282000F065FF02B010BD00B583B00091EE
:104E300000231A460146012001F013F803B05DF883
:104E400004FBF0B58BB007460E4615461C462022E3
:104E5000002102A8FFF772FD0CB100232380204639
:104E600001F07DFE034610B918460BB0F0BD0720D7
:104E700000F0CCFF012001F031FC1F238DF8083039
:104E800000228DF809208DF80A3000941346032182
:104E900002A801F051FB48B377B19DF80A309DF8A4
:104EA0000B2002EB03229DF80C3003EB02229DF84D
:104EB0000D3003EB02233B6016B19DF80E303370CA
:104EC0000DB100230AE00123CEE703F108020AA98D
:104ED0000A4412F8202CEA5401339BB29DF80F20AB
:104EE0009A42F2D80022EA540123BDE70023BBE72F
:104EF00030B58BB005460C4609B100230B80204627
:104F000001F02DFE034610B918460BB030BD072046
:104F100000F07CFF012001F0E1FB10238DF8083048
:104F200000238DF809301A4607E00AA9194411F840
:104F3000201C0A44D2B201339BB2012BF5D98DF863
:104F40000A20009400231A46032102A801F0F4FA73
:104F500020B19DF80A302B700123D5E70023D3E759
:104F600030B58BB005460C462022002102A8FFF781
:104F7000E5FC0CB100232380204601F0F0FD034640
:104F800010B918460BB030BD072000F03FFF0120DC
:104F900001F0A4FB12238DF8083000238DF80930AE
:104FA0001A4607E00AA9194411F8201C0A44D2B293
:104FB00001339BB2012BF5D98DF80A200094002310
:104FC0001A46032102A801F0B7FA20B19DF80A3071
:104FD0002B700123D5E70023D3E730B58BB004460F
:104FE0000D462022002102A8FFF7A8FC0DB10023E6
:104FF0002B80284601F0B3FD034610B918460BB0CC
:1050000030BD072000F002FF012001F067FB1123F3
:105010008DF8083000238DF809301A4607E00AA9F8
:10502000194411F8201C0A44D2B201339BB2012B5F
:10503000F5D98DF80A20009500231A46032102A80D
:1050400001F07AFA80B100230E2B09D89A1C0AA924
:105050000A4412F8202CE25412B101339BB2F3E758
:105060000023E3730123C9E70023C7E770B50646B1
:1050700001F024FBFF2804D10346002006B1337061
:1050800070BD01F01BFB03460028F7D00024052C5F
:105090000FD80A4B1D5D284601F034F80A20FFF7AF
:1050A00008FA01F00BFB0346854204D10134A4B297
:1050B000EDE70120E2E70020E0E700BFF46D000823
:1050C00010B584B0044600230293019305E0019BD0
:1050D00001330193029B01330293029BA3421FD22F
:1050E000029B23F0250343F00103DBB28DF803306C
:1050F0009DF8030001F006F80A20FFF7DAF901F045
:10510000DDFA8DF80F009DF80F20D2B29DF8033024
:10511000DBB29A42DBD0019BDBB28DF80230D9E7DB
:10512000412000F0EFFF0A20FFF7C3F9019804B017
:1051300010BD2DE9F0438BB00546884617469946C9
:10514000129E149C2022002102A8FFF7F7FB0CB14D
:1051500000232380204601F002FD034618B91846BB
:105160000BB0BDE8F083072000F050FE012001F0F5
:10517000B5FA14238DF8083001238DF809308DF825
:105180000A5015358DF80B50009400231A4604215F
:1051900002A801F0D1F900283FD09DF80B3053B19F
:1051A000B8F1000F02D0002388F80030BFB300230D
:1051B0003B700123D3E7B8F1000F03D09DF80C300A
:1051C00088F8003017B19DF80D303B70B9F1000F31
:1051D00007D09DF80E209DF80F3003EB0223A9F8AD
:1051E000003076B1002308E003F108020AA90A445E
:1051F00012F8202CF25401339BB20F2BF4D9002368
:10520000F373139B6BB19DF821209DF8223003EBC3
:105210000223139A13800123A1E700239FE70123B0
:105220009DE701239BE700002DE9F04385B0804610
:105230000C4617461E460C9D9149924801F01AFDF6
:10524000002811DD90498F4801F014FD002817DD7A
:10525000B8F1000F78D000221F2A1ED818F80230AB
:10526000DBB10132D2B2F7E7009533463A46214628
:10527000404600F00DF90346184605B0BDE8F0833E
:105280008249804801F0F6FC0028E1DB284600F066
:10529000F7F9FA20FFF70DF9DAE71A2A19D91B3ABC
:1052A0005FFA82F91B220095002341461846FFF75A
:1052B000AFFD03460028DFD0B9F1000F0CD1002C60
:1052C00042D000223F2A16D8A35CA3B10132D2B249
:1052D000F8E74FF00009E6E7009500234A46092A5F
:1052E00028BF092208F11B011020FFF791FD03469A
:1052F0000028E4D1C0E71A2A32D91B3A5FFA82F8B3
:105300001B220095002321460120FFF781FD034663
:105310000028B1D0B8F1000F16D0B8F11A0F22D979
:10532000A8F11B025FFA82F94FF01B0800950023D9
:10533000424604F11B012020FFF76AFD03460028C6
:105340009AD0B9F1000F11D100953B4600221146C9
:10535000FF20FFF75DFD034600288DD000272EE0DB
:105360004FF00008CDE74FF00009DFE7009500237C
:105370004A46092A28BF092204F136012120FFF7F5
:1053800047FD03460028DFD176E7FA20FFF791F8C2
:10539000FA20FFF78EF8FA20FFF78BF8FA20FFF7D4
:1053A00088F80134A4B2C72CEFD929460DF10F00BB
:1053B000FFF7D6FD034601280CD00137BFB2B8462F
:1053C00006EB86039F4246DA4FF6FF739F4242D0B8
:1053D0000024E8E79DF80F20042A31D015D8022ACE
:1053E00023D0032AE9D1731E03EB8303023B434519
:1053F000E3DC002D3CD001F061F983B21B029BB2CB
:1054000043F04A032B80002336E7052A3FF434AFEC
:10541000FF2AD2D185B301F051F983B21B029BB2AE
:1054200043F04C032B80002326E7FDB101F046F941
:1054300083B21B029BB243F04B032B8000231BE77C
:10544000C5B101F03BF983B21B029BB243F04D039F
:105450002B80002310E78DB101F030F983B21B02DD
:105460009BB243F032032B80002305E7002303E7C0
:10547000002301E70023FFE60023FDE60023FBE60F
:10548000A46D000858000020AC6D0008CC6D000829
:105490002DE9F0438DB080460F4614461E46149DFC
:1054A0002022002104A8FFF749FA0DB100232B8028
:1054B000284601F054FB814618B948460DB0BDE8B6
:1054C000F083072000F0A2FC012001F007F922235D
:1054D0008DF810301D238DF81130002306E09A1C42
:1054E0000CA8024402F8201C01339BB20C2B03D8F9
:1054F00018F803100029F2D100238DF81F3007E0BF
:1055000003F110020CA8024402F8201C01339BB2E4
:105510000C2B02D8F95C0029F2D100238DF82D3034
:105520008DF82E401A4607E00CA9194411F8201CEA
:105530000A44D2B201339BB21E2BF5D98DF82F202D
:10554000009500231A46202104A800F0F5FF00284A
:1055500000F084809DF81290B9F1000F70D1002DF9
:10556000ABD001F0ABF883B21B029AB29DF81230B7
:10557000803313432B80A0E7FA20FEF79AFFFA202E
:10558000FEF797FFFA20FEF794FFFA20FEF791FF4F
:105590000134A4B2C72CEFD929460DF10F00FFF753
:1055A000DFFC814601280BD00137BFB206EB860332
:1055B0009F4247DA4FF6FF739F4243D00024E9E74A
:1055C0009DF80F30042B2FD010D8022B20D0032BA6
:1055D000EAD1002D48D001F071F883B21B029BB2D2
:1055E00043F04A032B804FF0000966E7052B3FF498
:1055F00064AFFF2BD8D1002D3CD001F05FF883B20F
:105600001B029BB243F04C032B804FF0000954E780
:105610003DB301F053F883B21B029BB243F04B033E
:105620002B804FF0000948E70DB301F047F883B233
:105630001B029BB243F04D032B804FF000093CE767
:105640000027B3E7CDB101F039F883B21B029BB25A
:1056500043F032032B804FF000092EE74FF0000992
:105660002BE74FF0000928E74FF0000925E74FF03E
:10567000000922E74FF000091FE74FF000091CE77F
:1056800070B58AB004462022002102A8FFF756F91F
:1056900021461B4801F01CFB50BB06460CB1002301
:1056A0002380204601F05BFA054610B3072000F086
:1056B000ADFB012001F012F820238DF80830002204
:1056C0008DF809208DF80A3000941346032102A8B2
:1056D00000F032FF80B19DF80A507DB94CB100F066
:1056E000EDFF83B21B029BB243F04E03238000E028
:1056F000002528460AB070BD3546FAE70125F8E7CF
:10570000CC6D00082DE9F04F8DB00024079408946B
:1057100009940A940B948DF81B4041B10E46002465
:10572000FF2C08D8355D35B10134A4B2F8E74F221B
:105730001A80A34617E0611E89B2FE290FD81F46C2
:10574000904681461B2C12D91946444801F0C0FAF4
:1057500068B90FB100233B804FF0000A24E04F22CC
:105760001A804FF0000B58460DB0BDE8F08F3B4655
:1057700042463146484601F059F88346F3E718257A
:105780000497CDF80C800294CDF804A0009506EBA8
:105790000A0336220DF11B0107A800F043FE8346E1
:1057A00070B155441FFA85FAA2453ED2A4EB0A0314
:1057B000172BE4DCE5B25FFA8AF1691ACDB2DFE7B4
:1057C000002FD0D000F07AFF83B21B029BB23B8047
:1057D0009DF81C20FC2A18D008D8FA2A1DD018D809
:1057E0009C2A1ED143F04F033B80BCE7FE2A08D021
:1057F00003D843F03C033B80B5E743F03A033B80DA
:10580000B1E743F03B033B80ADE743F05E033B80F1
:10581000A9E743F05F033B80A5E743F05F033B80CC
:10582000A1E743F03D033B809DE700230F2B0ED8FB
:105830009DF81B209A420AD95A1C0CA90A4412F856
:10584000142C09F8032012B101339BB2EEE70022B9
:1058500009F803204FF0010B85E700BFBC6D00087D
:1058600070B58AB005460E4614462022002102A8D3
:10587000FFF764F80CB100232380204601F06FF994
:10588000034610B918460AB070BD072000F0BEFAF2
:10589000012000F023FF13238DF8083000238DF83A
:1058A00009301A4607E00AA9194411F8201C0A44D5
:1058B000D2B201339BB2012BF5D98DF80A200094A6
:1058C00000231A46032102A800F036FEE0B19DF83D
:1058D0000930002BD6D09DF90A30337000231A2BE3
:1058E0000ED89DF80920023A934209DADA1C0AA977
:1058F0000A4412F8202CEA5412B101339BB2EEE7AD
:105900000022EA540123BDE70023BBE700B585B0C0
:10591000029300230193009300F022FC05B05DF890
:1059200004FB70B58AB006460D4614460AB1002342
:105930001380204601F013F9034610B918460AB047
:1059400070BD072000F062FA012000F0C7FE1523A9
:105950008DF8083002238DF809308DF80A608DF833
:105960000B500022134607E00AA9194411F8201C25
:105970000A44D2B201339BB2032BF5D98DF80C2027
:10598000009400231A46052102A800F0D5FDA0B11D
:1059900000240DE0FA20FEF78CFDFA20FEF789FDC9
:1059A000FA20FEF786FDFA20FEF783FD0134A4B24B
:1059B000132CEFD99DF80A30C0E70023BEE70000A2
:1059C0002DE9F04F93B007468A46904699469DF8D8
:1059D00070509DF874601E9C0023069307930893F3
:1059E0000993ADF8163004B1238021468A4801F0AE
:1059F0006FF960B90DF116012846FFF716FA8346D4
:105A000028B9BDF81620D3B2553B012B12D98349D2
:105A1000834801F02FF900281DDA00230F2B0CD842
:105A200018F8032012A9194401F8302C2AB10133C7
:105A30009BB2F3E75CB1228009E012AA1344002272
:105A400003F8302C204601F08AF8834668B958469E
:105A500013B0BDE8F08F23463246414606A8FFF753
:105A600051FE83460028EDD1F1E7072000F0CEF982
:105A7000012000F033FE18238DF8283016238DF80E
:105A800029308DF82A704FEA1A238DF82B308DF8C3
:105A90002CA000230F2B0CD812AA1A4412F8301C89
:105AA00039B15A1D12A8024402F8201C01339BB2DE
:105AB000F0E705339BB206E012AA1A44002102F86F
:105AC000201C01339BB2142BF6D94FEA19238DF811
:105AD0003D308DF83E908DF83F500022134607E090
